:100000000C943F030C9467030C9467030C946703F0
:100010000C9467030C9467030C9467030C946703B8
:100020000C9467030C9467030C9467030C946703A8
:100030000C9467030C9467030C9467030C94670398
:100040000C9405120C9467030C94D3110C94AD110D
:100050000C9467030C9467030C9467030C94670378
:100060000C9467030C946703706963313666383803
:10007000370070696331366638383600706963312D
:100080003666383834007069633136663838330084
:1000900070696331366638383200706963313666AC
:1000A0003634386100706963313666363238610043
:1000B000706963313666363238007069633136668E
:1000C0003632376100706963313666363237007018
:1000D000696331366638380070696331366638379F
:1000E0000070696331366638346100706963313697
:1000F00066383400706963313666363736007069A9
:1001000063313666363330007069633132663637B4
:100110003500706963313266363239005072696E6B
:10012000747320746869732068656C70206D6573E2
:10013000736167650048454C50005072696E747376
:10014000207468652076657273696F6E206F662013
:1001500050726F6772616D5049430050524F475261
:10016000414D5F5049435F56455253494F4E0050F1
:100170006F77657273206F666620746865206465AA
:100180007669636520696E207468652070726F6798
:1001900072616D6D696E6720736F636B657400507B
:1001A00057524F46460044455654595045005365F2
:1001B0007473206120737065636966696320646588
:1001C000766963652074797065206D616E75616C08
:1001D0006C79005345544445564943450052657473
:1001E00075726E732061206C697374206F66206174
:1001F0006C6C20737570706F7274656420646576C2
:1002000069636520747970657300444556494345B8
:10021000530050726F626573207468652064657660
:1002200069636520616E642072657475726E7320F7
:10023000696E666F726D6174696F6E2061626F7551
:100240007420697400444556494345004572617302
:1002500065732074686520636F6E74656E747320B7
:100260006F662070726F6772616D2C20636F6E66AF
:10027000696775726174696F6E2C20616E642064A9
:10028000617461206D656D6F72790045524153450F
:1002900000535441525441444452005772697465AA
:1002A000732070726F6772616D20616E642064618B
:1002B000746120776F72647320746F20646576694F
:1002C0006365206D656D6F7279202862696E617259
:1002D000792900575249544542494E0053544152DE
:1002E000544144445220574F5244205B574F52448C
:1002F000202E2E2E5D005772697465732070726F08
:100300006772616D20616E64206461746120776F33
:1003100072647320746F20646576696365206D650F
:100320006D6F72792028746578742900575249548A
:10033000450052656164732070726F6772616D2051
:10034000616E64206461746120776F7264732066EB
:10035000726F6D20646576696365206D656D6F727F
:1003600079202862696E61727929005245414442C0
:10037000494E005354415254414444525B2D454E22
:1003800044414444525D0052656164732070726F51
:100390006772616D20616E64206461746120776FA3
:1003A0007264732066726F6D206465766963652080
:1003B0006D656D6F727920287465787429005245D7
:1003C0004144001201800F000400000020000000E2
:1003D000210000080080000100003004000801C076
:1003E0000F00040000002000000021000008008031
:1003F00000010000300400FE00C0100004000000F6
:1004000020000000210000080080000100003004EE
:1004100000F400E0100004000000200000002100B3
:100420000008008000010000300400EB00FFFF0026
:10043000040000002000000021000008004000002F
:100440000000000100E10060050004000000200041
:10045000000021000008004000000000000100D85A
:10046000002007001000000020000000210000090B
:10047000000001000000000500CF00600700100030
:100480000000200000002100000900000100000021
:10049000000500C500A007000400000020000000C7
:1004A00021000008008000000000000100BA0040A8
:1004B000100004000000200000002100000800805F
:1004C00000000000000400B000C0070008000000A9
:1004D0002000000021000008008000000000000152
:1004E00000A50060100008000000200000002100AE
:1004F00000080080000000000004009A00001100C5
:100500001000000020000000210000080000010091
:1005100000000004009000002000080000002000FF
:100520000000210000090080000000000004008697
:100530000020200010000000200000002100000921
:100540000000010000000004007C004020001000BA
:100550000000200000002100000900000100000050
:100560000004007200602000200000002000000055
:100570002100000900000100000000040068008064
:1005800020002000000020000000210000090000E1
:100590000100000000040000000000000000000056
:1005A000000000000000000000000000000000004B
:1005B00000464F524345004E4F5052455345525608
:1005C0004500000000002300260029000000000074
:1005D000240027002A0000000000250028002B002E
:1005E00004040404040404040202020202020303D9
:1005F00003030303010204081020408001020408E1
:100600001020010204081020000000080002010070
:10061000000304070000000000000000BE03E90E14
:10062000870373036B033A0E320373032C03280D05
:10063000F602DC02D3020B0C9B0291028B026D10BE
:100640004C0200004502750F120200000A02360734
:10065000DD010000D301FB08AE01A6019F013007B8
:100660006F0100005B017F073A010000350185073B
:100670001C0100000000000000000000BF13112456
:100680001FBECFEFD8E0DEBFCDBF11E0A0E0B1E0EC
:10069000E2E8FAE202C005900D92A23FB107D9F755
:1006A00022E0A2EFB1E001C01D92AC3EB207E1F73B
:1006B00013E0CFE3D3E004C02197FE010E9414149D
:1006C000CE33D107C9F70E944F120C943F150C94FA
:1006D0000000AF92BF92CF92DF92EF92FF920F9302
:1006E0001F93CF93DF936C017B018B01040F151FC8
:1006F000EB015E01AE18BF08C017D10759F0699130
:10070000D601ED91FC910190F081E02DC601099593
:10071000892B79F7C501DF91CF911F910F91FF9040
:10072000EF90DF90CF90BF90AF900895FC01538D74
:10073000448D252F30E0842F90E0821B930B5417BB
:1007400010F0CF96089501970895FC01918D828D48
:10075000981761F0A28DAE0FBF2FB11D5D968C91E1
:10076000928D9F5F9F73928F90E008958FEF9FEF20
:100770000895FC01918D828D981731F0828DE80FDC
:10078000F11D858D90E008958FEF9FEF0895FC0196
:10079000918D228D892F90E0805C9F4F821B910963
:1007A0008F73992708958BE492E00E94C70321E09C
:1007B000892B09F420E0822F089580E090E0892BB6
:1007C00029F00E94D30381110C9400000895FC01CC
:1007D000A48DA80FB92FB11DA35ABF4F2C91848DA2
:1007E00090E001968F739927848FA689B7892C93FF
:1007F000A089B1898C91837080648C93938D848D52
:10080000981306C00288F389E02D80818F7D808354
:100810000895EF92FF920F931F93CF93DF93EC0114
:1008200081E0888F9B8D8C8D98131AC0E889F98997
:10083000808185FF15C09FB7F894EE89FF8960839A
:10084000E889F98980818370806480839FBF81E01B
:1008500090E0DF91CF911F910F91FF90EF9008955D
:10086000F62E0B8D10E00F5F1F4F0F731127E02E38
:100870008C8D8E110CC00FB607FCFACFE889F98970
:10088000808185FFF5CFCE010E94E703F1CFEB8D8C
:10089000EC0FFD2FF11DE35AFF4FF0829FB7F89444
:1008A0000B8FEA89FB8980818062CFCF682F8BE430
:1008B00092E00C940904CF93DF93EC01888D882398
:1008C000B9F0AA89BB89E889F9898C9185FD03C0B3
:1008D000808186FD0DC00FB607FCF7CF8C9185FF98
:1008E000F2CF808185FFEDCFCE010E94E703E9CFF3
:1008F000DF91CF910895833081F028F4813099F011
:100900008230A9F008958730A9F08830C9F084308A
:10091000B1F4809180008F7D03C0809180008F773B
:1009200080938000089584B58F7784BD089584B541
:100930008F7DFBCF8091B0008F778093B0000895BA
:100940008091B0008F7DF9CF1F93CF93DF93282F35
:1009500030E0F901E85FF94F8491F901EC50FA4F6A
:10096000D491F901E052FA4FC491CC23A9F0162F8B
:1009700081110E947B04EC2FF0E0EE0FFF1FEA5282
:10098000FA4FA591B4918FB7F894EC91111108C06A
:10099000D095DE23DC938FBFDF91CF911F91089517
:1009A000DE2BF8CFCF93DF9390E0FC01EC50FA4FB1
:1009B000249180529A4FFC0184918823D1F090E0D9
:1009C000880F991FFC01E453FA4FA591B491FC01E3
:1009D000EA52FA4FC591D49161110EC09FB7F894B5
:1009E0008C91E22FE0958E238C932881E223E8837B
:1009F0009FBFDF91CF9108958FB7F894EC91E22BD0
:100A0000EC938FBFF6CFCF92DF92EF92FF920F93CE
:100A10001F93CF93DF93FB01EC0188819981AA8119
:100A2000BB81409118015091190160911A01709198
:100A30001B01481759076A077B0760F081E00081B6
:100A4000118122813381401751076207730758F5DE
:100A500080E029C0C0901401D0901501E0901601EB
:100A6000F09017018C159D05AE05BF0528F100918A
:100A700010011091110120911201309113010817FA
:100A800019072A073B07C0F04081518162817381B9
:100A90004C155D056E057F05D8F281E0041715073A
:100AA00026073707A8F2DF91CF911F910F91FF9092
:100AB000EF90DF90CF900895C0900C01D0900D0181
:100AC000E0900E01F0900F018C159D05AE05BF055D
:100AD00008F4BECF009108011091090120910A018C
:100AE00030910B01081719072A073B0768F6B0CFAA
:100AF0008091480290914902892B21F161E08FE0B9
:100B00000E94A40460E082E00E94A40460E087E008
:100B10000E94A40460E084E00E94A40460E087E0F6
:100B20000E94D20460E084E00E94D2041092490244
:100B3000109248021092F2011092F3011092F40107
:100B40001092F5010895CF93DF9380914802909120
:100B50004902892B09F039C061E08FE00E94A404AA
:100B600060E082E00E94A40460E087E00E94A404A8
:100B700060E084E00E94A40483EC90E00197F1F728
:100B800061E087E00E94D20461E084E00E94D20428
:100B900060E08FE00E94A404CFE0D0E0CE01019796
:100BA000F1F761E082E00E94A4042197F1F781E06F
:100BB00090E090934902809348021092F2011092C3
:100BC000F3011092F4011092F501DF91CF91089595
:100BD000FC01DB019491911105C081E0452B09F0E6
:100BE00080E0089541155105D9F38FE9890F8A31C5
:100BF00008F490522D918FE9820F8A3108F4205227
:100C00009213EECF319641505109E4CF8BE492E03C
:100C10000E94C703892BD1F38BE492E00C94A503C7
:100C20000F931F93CF93FB011082118212821382C4
:100C3000DC019D01281B390BCD9140ED4C0F4A3052
:100C4000E8F4408151816281738114E0440F551FA3
:100C5000661F771F1A95D1F70C2FCC0F110B00537D
:100C60001109012E000C220B330B402B512B622B50
:100C7000732B4083518362837383DBCF4FEB4C0F25
:100C80004630E8F4008111812281338144E0000F75
:100C9000111F221F331F4A95D1F74C2FCC0F550B34
:100CA00047535109052E000C660B770B042B152BAF
:100CB000262B372B0083118322833383BACF4FE94E
:100CC0004C0F463088F4408151816281738124E069
:100CD000440F551F661F771F2A95D1F70C2FCC0F95
:100CE000110B07551109BDCF8C2F8F7D31F0CD32FF
:100CF00021F0C93011F030E020E0C901CF911F91FF
:100D00000F910895EF92FF920F931F93CF93DF936C
:100D10007C01EB018A010E941006D701A80FB91FC0
:100D2000892B11F480E012C0FD018D918032E1F336
:100D30008930D1F38D3289F088819981AA81BB8174
:100D4000F80180839183A283B38381E0DF91CF9107
:100D50001F910F91FF90EF9008953196CF0121914F
:100D60002032E1F32930D1F3B8010E941006892B1B
:100D7000C9F281E0F801008111812281338148812B
:100D800059816A817B810417150726073707F0F61A
:100D9000C9CFCF93DF93EC01FE018491882321F02A
:100DA0000E9456042196F8CFDF91CF9108958A30A2
:100DB000910518F0895C0C945604805DFCCFCF93AC
:100DC000DF93EC018D2F82958F7090E00E94D70603
:100DD0008D2F99278F7099270E94D706CE0124E086
:100DE000969587952A95E1F78F7099270E94D706E7
:100DF000CE018F709927DF91CF910C94D706CF92B7
:100E0000DF92EF92FF926B017C01C701AA27BB27FB
:100E1000009711F00E94DF06C601FF90EF90DF906F
:100E2000CF900C94DF06FC0101900020E9F7319788
:100E3000AF01481B590BBC018BE492E00C94690391
:100E400085E391E00C941307CF93DF930E9413077F
:100E5000EC010E9420078C0F9D1FDF91CF91089518
:100E60000E94780588E391E00C942407CF92DF92EA
:100E7000EF92FF920F931F93CF93DF9388E391E05C
:100E80000E942407C3ECD3E010E000E086E0E82EE7
:100E9000F12CFE01C590D490C114D10411F10115BB
:100EA000110559F08CE20E945604C801B7010E9456
:100EB000EC13892B91F40E942007C6010E94C906F9
:100EC000FE01329685919491019619F08AE20E9472
:100ED00056040F5F1F4F6A96DCCF80E20E945604D3
:100EE000ECCF0E9420078BE391E0DF91CF911F911F
:100EF0000F91FF90EF90DF90CF900C9424078DE33B
:100F000091E00C9424070C941307EF92FF920F9337
:100F10001F93CF93DF9388E391E00E942407CCE1F5
:100F2000D6E0FE0185919491009701F1FE0134967F
:100F3000E590F490FE013696059114910E94C90641
:100F40000115110531F080E20E945604C8010E948B
:100F5000C9060E9420078CE491E00E948307C70124
:100F60000E94C9060E9420072896DBCF8BE391E000
:100F7000DF91CF911F910F91FF90EF900C94240778
:100F8000CF92DF92EF92FF920F931F93CF93DF9355
:100F9000EC01FC01349645915591659174916A017B
:100FA0007B0181E0C81AD108E108F108C09218015C
:100FB000D0921901E0921A01F0921B01FE013896BD
:100FC0000591159125913491009314011093150109
:100FD0002093160130931701FE017096859194912C
:100FE0000150110921093109080F191F211D311D57
:100FF00000931001109311012093120130931301FB
:10100000FE013C9685919591A591B49180930C0138
:1010100090930D01A0930E01B0930F01FE01729603
:10102000259134910197A109B109820F931FA11D48
:10103000B11D8093080190930901A0930A01B09318
:101040000B01FE01749685919491481B590B61091F
:101050007109409304015093050160930601709358
:101060000701C0920001D0920101E0920201F092CA
:101070000301FE017696859194919093F7018093F8
:10108000F601FE017896E491E0931C01FE01799649
:10109000E491E0934A0281E591E00E948307FE011A
:1010A000859194910E94C9060E9420078EE591E0E7
:1010B0000E948307609118017091190180911A01B3
:1010C00090911B010E94FF060E94200782E791E099
:1010D0000E9483076091140170911501809116019F
:1010E000909117010E94FF068DE20E9456046091C4
:1010F00010017091110180911201909113010E94D1
:10110000FF060E9420078091F6019091F701892B3C
:1011100061F080E891E00E9483078091F601909150
:10112000F7010E94DF060E9420078DE891E00E94EF
:10113000830760910C0170910D0180910E019091D7
:101140000F010E94FF068DE20E9456046091080183
:101150007091090180910A0190910B010E94FF0694
:101160000E94200740910401509105016091060101
:10117000709107018091000190910101A0910201FD
:10118000B091030184179507A607B707E8F089E92E
:1011900091E00E94830760910401709105018091A4
:1011A0000601909107010E94FF068DE20E945604FD
:1011B0006091000170910101809102019091030101
:1011C0000E94FF060E9420070E94200789EA91E002
:1011D0000E94830760911C0170E090E080E00E9413
:1011E000FF06DF91CF911F910F91FF90EF90DF905D
:1011F000CF900C942007CF92DF92EF92FF920F9343
:101200001F93CF93DF938C01FC017F01E01AF10A59
:101210008191982F9F7D11F08930B9F7C3ECD3E00D
:101220006E01FE01859194910097E1F0A701B8014C
:101230000E94E8056A96882399F388E391E00E946A
:101240002407C6010E94C0078BE391E00E94240797
:10125000DF91CF911F910F91FF90EF90DF90CF9092
:101260000C94780585EB91E0DF91CF911F910F9160
:10127000FF90EF90DF90CF900C9424070F931F9373
:10128000CF93DF93D82FC6E061E084E00E94A404EE
:101290000D2F10E061E0D0FF60E087E00E94A40421
:1012A00060E084E00E94A40415950795D02FC150FA
:1012B00059F7DF91CF911F910F910895882341F045
:1012C00080914A02843091F030F4823038F00895F1
:1012D00080911C01F7CF853079F0089588E00E9455
:1012E0003E098BE79BEB0197F1F7089588E00E9498
:1012F0003E098BE79EE3F7CF88E10E943E098BE928
:101300009FE00197F1F787E10C943E099F92AF921D
:10131000BF92CF92DF92EF92FF920F931F93CF93E2
:10132000DF930E943E0960E087E00E94A40460E031
:1013300087E00E94D20420E1B22ED0E0C0E00FE0AE
:1013400016E03BEFE32E35E0F32E47EEC42E45E0EA
:10135000D42ED695C79561E084E00E94A404F801DC
:101360008491F701A490F6019490992079F081116D
:101370000E947B04E92DF0E0EE0FFF1FEE53FA4FC1
:10138000A591B4918C91A82209F0D06860E084E026
:101390000E94A404BA94B110DCCF61E087E00E94FF
:1013A000D204CE01DF91CF911F910F91FF90EF906A
:1013B000DF90CF90BF90AF909F9008950F931F93B1
:1013C000CF938B010E943E09C0E161E084E00E945E
:1013D000A40461E000FF60E087E00E94A40460E0F4
:1013E00084E00E94A40416950795C15071F7CF912F
:1013F0001F910F9108958F929F92AF92BF92CF92BB
:10140000DF92EF92FF924B015C0180914802909134
:101410004902009771F40E94A30570E060E080E04B
:101420000E94DE0982E090E0909349028093480296
:1014300015C0019789F570E060E080E00E94DE0948
:1014400082E090E090934902809348021092F2016A
:101450001092F3011092F4011092F501C090F20184
:10146000D090F301E090F401F090F501C814D90494
:10147000EA04FB0408F586E00E943E098FEFC81AD3
:10148000D80AE80AF80AC092F201D092F301E09279
:10149000F401F092F501E2CF8091F2019091F30115
:1014A000A091F401B091F50188169906AA06BB0631
:1014B000A8F60E947805AFCF84E00E948609969531
:1014C00087959F73FF90EF90DF90CF90BF90AF9084
:1014D0009F908F9008950E9478050E94A3056FEF5A
:1014E0007FE380E00E94DE0982E090E09093490271
:1014F0008093480208958F929F92AF92BF92CF92AD
:10150000DF92EF92FF926B017C0140910C015091B0
:101510000D0160910E0170910F0180914802909130
:101520004902C416D506E606F70630F18090080198
:1015300090900901A0900A01B0900B018C149D04B9
:10154000AE04BF04C8F0C41AD50AE60AF70A019728
:1015500071F48091F2019091F301A091F401B091A6
:10156000F501C816D906EA06FB0608F048C00E9435
:1015700078050E94A30543C04091140150911501C4
:101580006091160170911701C416D506E606F7069C
:10159000F0F28090100190901101A0901201B09093
:1015A00013018C149D04AE04BF0488F2C41AD50A3A
:1015B000E60AF70A009771F40E94A30570E060E064
:1015C00080E00E94DE0982E090E0909349028093DF
:1015D000480215C0019789F570E060E080E00E9444
:1015E000DE0982E090E090934902809348021092D5
:1015F000F2011092F3011092F4011092F501809023
:10160000F2019090F301A090F401B090F5018C14D8
:101610009D04AE04BF0408F586E00E943E098FEFEA
:10162000881A980AA80AB80A8092F2019092F301E7
:10163000A092F401B092F501E2CF8091F201909175
:10164000F301A091F401B091F501C816D906EA069C
:10165000FB06A8F60E947805AFCFFF90EF90DF90D1
:10166000CF90BF90AF909F908F900895CF92DF92D0
:10167000EF92FF92CF93DF936B017C01EA010E940E
:101680007B0A80910C0190910D01A0910E01B09107
:101690000F01C816D906EA06FB0650F18091080131
:1016A00090910901A0910A01B0910B018C159D0543
:1016B000AE05BF05E8F0DD27BE01660F771F83E0AA
:1016C0000E94DE0981E00E945E0985E00E94860991
:1016D000969587959C01332781E0C217D30709F0BF
:1016E00080E0DF91CF91FF90EF90DF90CF90089551
:1016F000DF73BE01660F771F82E00E94DE0980E083
:101700000E945E0984E00E948609969587959C0157
:101710003F73E2CFCF92DF92EF92FF920F931F932E
:10172000CF93DF936B017C01EA010E947B0A8091D9
:101730000C0190910D01A0910E01B0910F01C816FE
:10174000D906EA06FB0660F1809108019091090133
:10175000A0910A01B0910B018C159D05AE05BF0546
:10176000F8F0DD27BE01660F771F83E00E94DE09D7
:1017700081E00E945E0985E00E9486099695879522
:101780009C01332781E0C217D30709F080E0DF9185
:10179000CF911F910F91FF90EF90DF90CF90089520
:1017A0000091F6011091F7010115110581F080916A
:1017B000140190911501A0911601B091170107969F
:1017C000A11DB11D8C159D05AE05BF0591F0DF7300
:1017D000BE01660F771F82E00E94DE0980E00E9452
:1017E0005E0984E00E948609969587959C013F7367
:1017F000C9CF84E00E9486099801209530953F73F7
:10180000C223D3239695879598013F7328233923C4
:10181000C22BD32BDDCF4F925F926F927F928F922C
:101820009F92AF92BF92CF92DF92EF92FF920F936F
:101830001F93CF93DF9300D000D0CDB7DEB77C01EC
:101840008C01A8014E195F09F8018191982F9F7DA5
:1018500011F0893089F5B70181EB95E00E94E80528
:10186000782E882341F07801F80181918F01803230
:10187000D1F38930C1F3BE016F5F7F4FC7010E9472
:101880001006892BD9F485EB91E00E9424070F9074
:101890000F900F900F90DF91CF911F910F91FF90BC
:1018A000EF90DF90CF90BF90AF909F908F907F9000
:1018B0006F905F904F9008958F01C3CF89819A8177
:1018C000AB81BC818090180190901901A0901A0101
:1018D000B0901B0188169906AA06BB06B0F5409188
:1018E0001401509115016091160170911701841730
:1018F0009507A607B70768F0809010019090110136
:10190000A0901201B090130188169906AA06BB0692
:10191000E0F440910C0150910D0160910E01709125
:101920000F0184179507A607B70708F4ACCF80907E
:10193000080190900901A0900A01B0900B0188164F
:101940009906AA06BB0608F49ECF88E391E00E94A0
:10195000240766246394D12CC12C98E1492E512C84
:101960000E9406068C018A30910509F04CC0C11412
:10197000D104B1F3F12CE12CE016F1060CF449C0CE
:101980008DEFE82E81E0F82E01501109C7018D5F1F
:101990009140801791070CF056C069817A818B8144
:1019A0009C8186169706A806B90608F46CCFF70145
:1019B00020814181542F422F71103CC00E948A0B1C
:1019C000882309F460CF89819A81AB81BC8101961B
:1019D000A11DB11D89839A83AB83BC83FFEFCF1A0E
:1019E000DF0AC601B2010E94EC13892B41F4611099
:1019F00024C061E083E10E94A4046624639482E031
:101A0000E80EF11CC3CF892B09F0B4CF88E391E035
:101A10003CCF80E4E816F10454F40E940606F70176
:101A2000E350FE4F8083FFEFEF1AFF0AA5CF0E941D
:101A30000606F9CF0E94360BC3CF60E083E10E9417
:101A4000A404612CDCCF88E391E00E94240788CFB6
:101A50008F929F92BF92CF92DF92EF92FF920F935D
:101A60001F93CF93DF93CDB7DEB728970FB6F894C7
:101A7000DEBF0FBECDBF8C017C01A701401B510B07
:101A8000F7018191982F9F7D11F0893071F5B80190
:101A900081EB95E00E94E805B82E882341F087018C
:101AA000F70181917F018032D1F38930C1F3BE010A
:101AB0006F5F7F4FC8010E9410060097C1F485EB4D
:101AC00091E00E94240728960FB6F894DEBF0FBE5F
:101AD000CDBFDF91CF911F910F91FF90EF90DF90DD
:101AE000CF90BF909F908F9008957F01C6CF080F31
:101AF000191F89819A81AB81BC81C0901801D09057
:101B00001901E0901A01F0901B01C816D906EA06E7
:101B1000FB06B0F54091140150911501609116013A
:101B20007091170184179507A607B70768F0C09052
:101B30001001D0901101E0901201F0901301C8162D
:101B4000D906EA06FB06E0F440910C0150910D0124
:101B500060910E0170910F0184179507A607B707D2
:101B600008F4ADCFC0900801D0900901E0900A01BF
:101B7000F0900B01C816D906EA06FB0608F49FCFC1
:101B8000912C812CF8018081803211F0893019F478
:101B90000F5F1F4FF7CF882399F18D3209F48FCF54
:101BA000BE016B5F7F4FC8010E941006009709F4C9
:101BB00086CF080F191F69817A818B819C81C61697
:101BC000D706E806F90608F47ACF4D815E81B11098
:101BD00014C00E948A0B882309F471CF89819A81ED
:101BE000AB81BC810196A11DB11D89839A83AB8312
:101BF000BC83FFEF8F1A9F0AC5CF0E94360BEBCF35
:101C0000892809F45CCF88E391E05BCFCF92DF9223
:101C1000EF92FF926B017C010E947B0A80910C0184
:101C200090910D01A0910E01B0910F01C816D90637
:101C3000EA06FB06C0F08091080190910901A0918D
:101C40000A01B0910B018C159D05AE05BF0558F03A
:101C500085E00E948609969587959927FF90EF90D9
:101C6000DF90CF90089584E00E948609969587952D
:101C70009F73F4CF4F925F926F927F92AF92BF9219
:101C8000CF92DF92EF92FF920F931F93CF93DF9348
:101C9000CDB7DEB728970FB6F894DEBF0FBECDBF25
:101CA000AE014B5F5F4FBE016F5F7F4F0E948206A8
:101CB000882351F0BE016B5F7F4FCE0101960E94D9
:101CC0000305C82E811119C085EB91E00E942407FD
:101CD00028960FB6F894DEBF0FBECDBFDF91CF912F
:101CE0001F910F91FF90EF90DF90CF90BF90AF903A
:101CF0007F906F905F904F90089588E391E00E94ED
:101D00002407DC2C10E000E0B12CA12C69817A8141
:101D10008B819C814D805E806F807884461657064B
:101D20006806790608F441C00E94060EF801E350E7
:101D3000FE4F8183780182E0E80EF11CF701E35049
:101D4000FE4F908380E4E816F10468F0E092FD0114
:101D5000A8014D5F5F4F6DEF71E08BE492E00E9450
:101D60006903F12CE12C89819A81AB81BC810196B8
:101D7000A11DB11D89839A83AB83BC838FEFA81A01
:101D8000B80AC5018F739927892B39F4D11007C080
:101D900061E083E10E94A404DC2C8701B7CF60E0FE
:101DA00083E10E94A404D12CF8CF0115110559F04C
:101DB0000093FD01A8014F5F5F4F6DEF71E08BE471
:101DC00092E00E94690360E08BE492E00E940904C3
:101DD0007FCF8F929F92AF92BF92CF92DF92EF927E
:101DE000FF920F931F93CF93DF93CDB7DEB7289762
:101DF0000FB6F894DEBF0FBECDBFAE014B5F5F4F95
:101E0000BE016F5F7F4F0E948206882351F0BE01A2
:101E10006B5F7F4FCE0101960E940305E82E811172
:101E200017C085EB91E00E94240728960FB6F8941E
:101E3000DEBF0FBECDBFDF91CF911F910F91FF90FD
:101E4000EF90DF90CF90BF90AF909F908F900895CC
:101E500088E391E00E942407FE2C10E000E06981F5
:101E60007A818B819C818D809E80AF80B88486161C
:101E70009706A806B906A0F10E94060E6C0101158E
:101E8000110539F0C80187709927892BF9F40E9450
:101E90002007C6010E94DF0689819A81AB81BC813F
:101EA0000196A11DB11D89839A83AB83BC830F5F0B
:101EB0001F4FC8018F719927892B89F6F1100AC02D
:101EC00061E083E10E94A404FE2CC9CF80E20E945D
:101ED0005604DFCF60E083E10E94A404F12CBFCF61
:101EE0000E9420078BE391E09ECF8F929F92AF924A
:101EF000BF92CF92DF92EF92FF920F931F93CF93F7
:101F0000DF930E94780560E070E0CB010E94FB093E
:101F1000EC0161E070E080E090E00E94FB095C0170
:101F200062E070E080E090E00E94FB096C0163E0F9
:101F300070E080E090E00E94FB097C0166E070E0C8
:101F400080E090E00E94FB098C0167E070E080E097
:101F500090E00E94FB094C010115110521F00F3F93
:101F60002FE3120709F5CE018A299B298C299D2987
:101F70008E299F2988299929C12CD12C7601892B5A
:101F800089F480E1C816D104E104F10409F448C0E1
:101F9000C701B6010E94060E2FEFC21AD20AE20A4A
:101FA000F20AEDCF10E000E088E391E00E94240700
:101FB0008BEB91E00E948307C8010E94DF060E941C
:101FC000200723EC33E0007EC901F90145915491CB
:101FD000452B49F1F901329645915491265E3F4FC8
:101FE0000417150789F70E94C00786EC91E00E944C
:101FF0008307C4010E94DF060E9420078BE391E063
:102000000E942407DF91CF911F910F91FF90EF90D5
:10201000DF90CF90BF90AF909F908F900C947805F9
:1020200085EB91E0EDCF8FEF97E0A0E0B0E08093FB
:10203000180190931901A0931A01B0931B0140E07D
:1020400050E260E070E040931401509315016093FA
:1020500016017093170147E050E260E070E0409392
:10206000100150931101609312017093130140E02D
:1020700051E260E070E040930C0150930D016093D9
:102080000E0170930F014FE751E260E070E0409362
:1020900008015093090160930A0170930B0140E01D
:1020A00058E060E070E040930401509305016093B4
:1020B0000601709307018093000190930101A093A2
:1020C0000201B09303011092F7011092F60184E02F
:1020D00080931C0110924A0288CF4F925F926F92B8
:1020E0007F92AF92BF92CF92DF92EF92FF920F93C7
:1020F0001F93CF93DF93FC01AF01481B590B219134
:10210000322F3F7D11F02930B9F7BC0187EB95E004
:102110000E94E805D1E0D82709F4A7C0C0900401C7
:10212000D0900501E0900601F09007014090000179
:102130005090010160900201709003014C145D0405
:102140006E047F0408F491C0C20101968C199D09A8
:10215000880F991F0E941A148C01009709F473C00C
:102160005C01C701B6010E94060EF50181939193AF
:102170005F01FFEFCF1ADF0AEF0AFF0A4C145D047C
:102180006E047F0470F7E090F601F090F701E1141F
:10219000F10409F46DC0DD2309F46AC060911401F3
:1021A000709115018091160190911701695F7F4F21
:1021B0008F4F9F4F0E94060EEC01C0952FE3D22750
:1021C000CE21DF21C0958FE3D8270E94200783ED21
:1021D00091E00E948307BE0190E080E00E94FF062C
:1021E0000E94200780911C01843009F444C085308E
:1021F00009F481C00E946B0A87E0E82EF12C86E08A
:102200000E943E09E1E0EE1AF108C9F781E00E9460
:102210003E0987E00E943E0988E00E943E098BE764
:1022200098E30197F1F781E00E943E0987E00E9460
:102230003E096FEF7FE383E00E94DE098BE00E949E
:102240003E0988E022C085EB91E0DF91CF911F919C
:102250000F91FF90EF90DF90CF90BF90AF907F9065
:102260006F905F904F900C94240710E000E08BCFAC
:10227000CFEFDFE3AACF0E946B0A89E00E943E09FC
:102280008BEB9DE50197F1F78BE00E943E098BE314
:102290009DE00197F1F70E9478050E94A3050115C2
:1022A000110599F1C0900401D0900501E09006015C
:1022B000F090070158017724739480910001909168
:1022C0000101A0910201B09103018C159D05AE059D
:1022D000BF05A8F0F501419151915F01C701B60119
:1022E0000E948A0B811101C0712CFFEFCF1ADF0A07
:1022F000EF0AFF0AE2CF0E946B0A8FE1C6CFC80146
:102300000E94B614772009F49ECFC0901401D0909B
:102310001501E0901601F090170127E0C20ED11CC4
:10232000E11CF11C8091100190911101A09112010A
:10233000B09113018C159D05AE05BF0558F0AE0197
:10234000C701B6010E94360B8FEFC81AD80AE80AF7
:10235000F80AE8CF88E391E078CF1F920F920FB68A
:102360000F9211242F933F934F935F936F937F931B
:102370008F939F93AF93BF93EF93FF938BE492E080
:102380000E94E703FF91EF91BF91AF919F918F91D1
:102390007F916F915F914F913F912F910F900FBE61
:1023A0000F901F9018951F920F920FB60F92112445
:1023B0002F938F939F93EF93FF93E0915B02F091A4
:1023C0005C028081E0916102F091620282FD1BC09B
:1023D0009081809164028F5F8F73209165028217D4
:1023E00041F0E0916402F0E0E55BFD4F958F809352
:1023F0006402FF91EF919F918F912F910F900FBEEB
:102400000F901F9018958081F4CF1F920F920FB6F6
:102410000F9211242F933F938F939F93AF93BF936A
:102420008091400290914102A0914202B0914302FA
:102430003091FC0123E0230F2D3758F50196A11DA3
:10244000B11D2093FC018093400290934102A09320
:102450004202B09343028091F8019091F901A0915A
:10246000FA01B091FB010196A11DB11D8093F80105
:102470009093F901A093FA01B093FB01BF91AF9142
:102480009F918F913F912F910F900FBE0F901F90B2
:10249000189526E8230F0296A11DB11DD2CF78947E
:1024A00084B5826084BD84B5816084BD85B5826059
:1024B00085BD85B5816085BD80916E00816080930A
:1024C0006E00109281008091810082608093810073
:1024D0008091810081608093810080918000816083
:1024E000809380008091B10084608093B1008091DE
:1024F000B00081608093B00080917A008460809306
:102500007A0080917A00826080937A0080917A00CC
:10251000816080937A0080917A00806880937A004D
:102520001092C100E0915B02F0915C0282E0808336
:10253000E0915702F09158021082E0915902F09117
:102540005A028FEC808310926302E0915F02F09157
:10255000600286E08083E0915D02F0915E028081FE
:1025600080618083E0915D02F0915E0280818860ED
:102570008083E0915D02F0915E02808180688083BB
:10258000E0915D02F0915E0280818F7D808361E049
:102590008FE00E94D20461E082E00E94D20461E0F8
:1025A0008FE00E94A40460E082E00E94A40460E046
:1025B00084E00E94D20460E087E00E94D20461E0DF
:1025C00083E10E94D20460E083E10E94A404C0E0A1
:1025D000D0E08BE492E00E94C703892B09F4A9C0E4
:1025E0008BE492E00E94A50320913E0230913F02CD
:1025F0008A30910521F08D30910509F077C01216CF
:1026000013060CF050C023503E4FF9011082109277
:102610003F0210923E0261E083E10E94A4049DEF1C
:10262000E92E91E0F92EF7018191803299F08930FD
:1026300089F08823A1F1F7015F01AE18BF084F01AF
:10264000DF018D91882371F0803231F0893021F0E3
:10265000FD01F2CF7F01E7CF4F0181918032E1F39D
:102660008930D1F38CE1C82E86E0D82E86010C513A
:102670001640F60185919491009799F1A501B70153
:102680000E94E805F8E0CF0ED11C882379F3F80109
:10269000E25EF94F25913491C401F901099560E09A
:1026A00083E10E94A4042FB7F89480914002909196
:1026B0004102A0914202B09143022FBF8093440295
:1026C00090934502A0934602B0934702209709F4E5
:1026D00080CF0E94D303882309F47BCF0E9400009F
:1026E00078CF85EE91E00E942407D9CF88309105FC
:1026F00051F412161306BCF62150310930933F02F3
:1027000020933E02D0CF203431056CF6A9014F5FF3
:102710005F4FF901E350FE4F9C0121563109509360
:102720003F0240933E022A31310508F480528083F3
:10273000BACF8091480290914902892B39F22FB784
:10274000F8948091400290914102A0914202B09190
:1027500043022FBF409144025091450260914602CE
:1027600070914702841B950BA60BB70B803D9740D9
:10277000A105B10508F4AACF0E947805A7CFEBE424
:10278000F2E01382128288EE93E0A0E0B0E084834E
:102790009583A683B78387E291E09183808385EC5C
:1027A00090E09587848784EC90E09787868780EC1B
:1027B00090E0918B808B81EC90E0938B828B82EC0C
:1027C00090E0958B848B86EC90E0978B868B118EB6
:1027D000128E138E148E089597FB072E16F4009414
:1027E00007D077FD09D00E94001407FC05D03EF405
:1027F000909581959F4F0895709561957F4F0895AD
:10280000AA1BBB1B51E107C0AA1FBB1FA617B70716
:1028100010F0A61BB70B881F991F5A95A9F7809532
:102820009095BC01CD010895EE0FFF1F0590F49126
:10283000E02D09940F931F93CF93DF93823091057E
:1028400010F482E090E0E091EA02F091EB0230E0D7
:1028500020E0B0E0A0E0309799F42115310509F4AB
:102860004AC0281B390B24303105D8F58A819B8159
:102870006115710589F1FB0193838283FE0111C00B
:10288000408151810281138148175907E0F04817B0
:10289000590799F4109761F012960C9312971396BA
:1028A0001C933296CF01DF91CF911F910F91089524
:1028B0000093EA021093EB02F4CF2115310551F099
:1028C0004217530738F0A901DB019A01BD01DF016E
:1028D000F801C1CFEF01F9CF9093EB028093EA02A8
:1028E000CDCFFE01E20FF31F819391932250310966
:1028F00039832883D7CF2091E8023091E902232B36
:1029000041F420911F01309120013093E90220937E
:10291000E80220911D0130911E012115310541F47D
:102920002DB73EB74091210150912201241B350B58
:10293000E091E802F091E902E217F307A0F42E1B00
:102940003F0B2817390778F0AC014E5F5F4F241713
:10295000350748F04E0F5F1F5093E9024093E8029D
:10296000819391939FCFF0E0E0E09CCFCF93DF93F2
:102970000097E9F0FC01329713821282A091EA02DB
:10298000B091EB02ED0130E020E01097A1F420813E
:102990003181820F931F2091E8023091E9022817BC
:1029A000390709F061C0F093E902E093E802DF9192
:1029B000CF910895EA01CE17DF07E8F54A815B81E0
:1029C0009E0141155105B1F7E901FB83EA83499165
:1029D0005991C40FD51FEC17FD0761F480819181D7
:1029E0000296840F951FE9019983888382819381E0
:1029F0009B838A83F0E0E0E012968D919C9113977F
:102A00000097B9F52D913C911197CD010296820F57
:102A1000931F2091E8023091E9022817390739F60F
:102A2000309751F51092EB021092EA02B093E9024E
:102A3000A093E802BCCFD383C28340815181840F2D
:102A4000951FC817D90761F44E5F5F4F8881998140
:102A5000480F591F518340838A819B8193838283CE
:102A60002115310509F0B0CFF093EB02E093EA02B3
:102A70009ECFFD01DC01C0CF13821282D7CFF89424
:022A8000FFCF86
:102A8200FF070000000800007F2100000021000075
:102A92000720000000200000FF070000040000ECF7
:102AA200028000000000000904690396035B04C76A
:102AB20003A503B9030D0A004F4B002E0050726F9D
:102AC2006772616D50494320332E30002020202050
:102AD200004465766963654E616D653A2000507207
:102AE2006F6772616D52616E67653A2030303030C7
:102AF2002D00436F6E66696752616E67653A20000A
:102B0200436F6E666967536176653A20004461746B
:102B12006152616E67653A2000526573657276652F
:102B22006452616E67653A2000466C61736854793D
:102B320070653A20004552524F52004465766963EF
:102B42006549443A2000436F6E666967576F726445
:102B52003A20004765745265736572766564576FF3
:102B620072643A20004E4F54535550504F525445C0
:022B720044001D
:00000001FF
